:1005C600014B01015600023E05DC024005DC0242F9
:0E05D60005DC024405DC024605DC024805DCBB
:1005E500758912E4F58DF58BF58CF58AD2AFC2A924
:0B05F500D2ABC2A8D288C28CD28E22EA
:1004C0008E098F0AAB07AA06E4C39BFFE49AFE7469
:1004D000019400FDE49400FCE4FB7A01F9F81205B4
:1004E000418F4EAE09AF0AAB07AA06E4C39BFFE4F7
:1004F0009AFE74019400FDE49400FCE4FB7A01F997
:10050000F8120541AF038F54E50A24C8FFE509340A
:10051000B5FEE433FDE433FCE4FB7A01F9F812059F
:10052000418F53E50A24C8FFE50934B5FEE433FDE5
:10053000E433FCE4FB7A01F9F8120541AF038F556F
:010540002298
:10043600853E4C853F4D1205E5AF4DAE4C1204C0CE
:10044600750801AF0812001E0508E508C3940740A9
:10045600F21205858F4AE54A640170297421254BFD
:10046600F8A64E742F254BF8A6537428254BF8A6EC
:10047600547437254BF8A655054B755601E54BB414
:100486000703754B01E54A640270287421254BF871
:10049600A64E742F254BF8A6537428254BF8A65460
:1004A6007437254BF8A655154B755601E54B700369
:0A04B600754B06AF4B12001E809735
:03001B0002030CD1
:10030C00C0E0C0D0E54B24FE602514603714604972
:10031C0014605B14606D2405707C30900885538DDF
:10032C0085558B8006854E8D85548BB290806730B9
:10033C00910885538D85558B8006854E8D85548B04
:10034C00B291805230920885538D85558B800685ED
:10035C004E8D85548BB292803D30930885538D859C
:10036C00558B8006854E8D85548BB29380283094A6
:10037C000885538D85558B8006854E8D85548BB2A3
:10038C0094801330950885538D85558B8006854E4A
:0E039C008D85548BB295754A00D0D0D0E032DA
:1005850020A00E7F0A12000320A03530A0FD7F01B8
:100595002220A10E7F0A12000320A12430A1FD7F95
:1005A500022220A20B7F0A12000320A2137F03223E
:1005B50020A30B7F0A12000320A3057F04227F00DE
:0105C5002213
:10001E00EF24FE60741470030200EB1470030201EF
:10002E003F1470030201931470030201E62405606D
:10003E000302023A7580FEE54AB40314C3E53F9409
:10004E00C4E53E94095025740F253FF53FE4801812
:10005E00E54AB40417D3E53F9458E53E9402400CAC
:10006E0074F1253FF53F74FF353EF53EE556600FC2
:10007E0085224E853053852954853855020237AF77
:10008E003FAE3E1204C00202377580FDE54AB4034E
:10009E0014C3E5419460E54094095025740F254141
:1000AE00F541E48018E54AB40417D3E5419458E5C8
:1000BE00409402400C74F12541F54174FF3540F532
:1000CE0040E556600E85234E853153852A54853979
:1000DE00558007AF41AE401204C00202377580FB57
:1000EE00E54AB40314C3E54394C4E542940950258C
:1000FE00740F2543F543E48018E54AB40417D3E59D
:10010E00439458E5429402400C74F12543F5437430
:10011E00FF3542F542E556600E85244E85325385F5
:10012E002B54853A558007AF43AE421204C00202EB
:10013E00377580F7E54AB40314C3E54594D0E5441A
:10014E0094075025740F2545F545E48018E54AB40B
:10015E000417D3E5459458E5449402400C74F125F8
:10016E0045F54574FF3544F544E556600E85254E3C
:10017E00853353852C54853B558007AF45AE4412CD
:10018E0004C00202377580EFE54AB40314C3E54795
:10019E0094C4E54694095025740F2547F547E4802D
:1001AE0018E54AB40417D3E5479458E5469402403F
:1001BE000C74F12547F54774FF3546F546E5566054
:1001CE000E85264E853453852D54853C558007AFBC
:1001DE0047AE461204C080517580DFE54AB4031461
:1001EE00C3E54994C4E54894095025740F2549F593
:1001FE0049E48018E54AB40417D3E5499465E54807
:10020E009404400C74F12549F54974FF3548F548BE
:10021E00E556600E85274E853553852E54853D5502
:10022E008007AF49AE481204C0E4F556E4F54A2201
:0F0003007E64AD07EDD3940040031D80F7DEF35C
:0100120022CB
:030000000203AA4E
:0C03AA00787FE4F6D8FD7581770203F13E
:10054100C2D5E830E70FB2D5E4C39BFBE49AFAE4E5
:1005510099F9E498F8EC30E717B2D5120577120251
:100561007AE4C39BFBE49AFAE499F9E498F88003EE
:1005710012027A30D50DE4C39FFFE49EFEE49DFD97
:04058100E49CFC22D8
:1003B600020436E493A3F8E493A34003F68001F223
:1003C60008DFF48029E493A3F85407240CC8C33348
:1003D600C4540F4420C8834004F456800146F6DF17
:1003E600E4800B01020408102040809005C6E47EDC
:1003F600019360BCA3FF543F30E509541FFEE4930C
:10040600A360010ECF54C025E060A840B8E493A3D2
:10041600FAE493A3F8E493A3C8C582C8CAC583CAFD
:10042600F0A3C8C582C8CAC583CADFE9DEE780BEB5
:0105E4000016
:10023E0075F008758200EF2FFFEE33FECD33CDCC77
:10024E0033CCC58233C5829BED9AEC99E5829840FA
:10025E000CF582EE9BFEED9AFDEC99FC0FD5F0D6D7
:10026E00E4CEFBE4CDFAE4CCF9A88222B800C1B901
:10027E000059BA002DEC8BF084CFCECDFCE5F0CB3F
:10028E00F97818EF2FFFEE33FEED33FDEC33FCEB78
:10029E0033FB10D703994004EB99FB0FD8E5E4F933
:1002AE00FA227818EF2FFFEE33FEED33FDEC33FC20
:1002BE00C933C910D7059BE99A4007EC9BFCE99A14
:1002CE00F90FD8E0E4C9FAE4CCFB2275F010EF2F59
:1002DE00FFEE33FEED33FDCC33CCC833C810D70759
:1002EE009BEC9AE899400AED9BFDEC9AFCE899F894
:0E02FE000FD5F0DAE4CDFBE4CCFAE4C8F92227
:00000001FF
