:03001800DFFE22E6
:10000300AE07AF061EEF600C7FF51200187FF512E6
:05001300001880EE2240
:1005B500013101013800022405DC022605DC022890
:0E05C50005DC022A05DC022C05DC022E05DC1A
:0F05D400438910E4F58DF58BD2AFD2ABD28E22D6
:100436008E398F3AAB07AA06E4C39BFFE49AFE7493
:10044600019400FDE49400FCE4FB7A01F9F812053E
:10045600308F34AE39AF3AAB07AA06E4C39BFFE44C
:100466009AFE74019400FDE49400FCE4FB7A01F921
:10047600F8120530AF038F36E53A24C8FFE5393464
:10048600B5FEE433FDE433FCE4FB7A01F9F812052A
:10049600308F35E53A24C8FFE53934B5FEE433FD3F
:1004A600E433FCE4FB7A01F9F8120530AF038F3729
:0104B6002223
:1004B7008524328525331205D4AF33AE3212043684
:1004C7001205748F30E5306401702974082531F8FE
:1004D700A63474162531F8A635740F2531F8A636DB
:1004E700741D2531F8A6370531753801E531B40794
:1004F70003753101E5306402702874082531F8A6C8
:100507003474162531F8A635740F2531F8A63674DC
:100517001D2531F8A6371531753801E5317003759A
:090527003106AF3112001E80976D
:03001B0002030CD1
:10030C00C0E0C0D0E53124FE60251460371460498C
:10031C0014605B14606D2405707C30900885358DFD
:10032C0085378B800685348D85368BB2908067300F
:10033C00910885358D85378B800685348D85368B78
:10034C00B291805230920885358D85378B80068529
:10035C00348D85368BB292803D30930885358D85F2
:10036C00378B800685348D85368BB29380283094FC
:10037C000885358D85378B800685348D85368BB217
:10038C0094801330950885358D85378B80068534A0
:0E039C008D85368BB295753000D0D0D0E03212
:1005740020A00E7F0A12000320A03530A0FD7F01C9
:100584002220A10E7F0A12000320A12430A1FD7FA6
:10059400022220A20B7F0A12000320A2137F03224F
:1005A40020A30B7F0A12000320A3057F04227F00EF
:0105B4002224
:10001E00EF24FE60741470030200EB1470030201EF
:10002E003F1470030201931470030201E62405606D
:10003E000302023A7580FEE530B40314C3E525943D
:10004E00C4E5249409502574052525F525E480186A
:10005E00E530B40417D3E5259458E5249402400CFA
:10006E0074FB2525F52574FF3524F524E538600F3E
:10007E00850934851735851036851E37020237AF50
:10008E0025AE241204360202377580FDE530B40326
:10009E0014C3E5279460E526940950257405252799
:1000AE00F527E48018E530B40417D3E5279458E516
:1000BE00269402400C74FB2527F52774FF3526F590
:1000CE0026E538600E850A34851835851136851F6C
:1000DE00378007AF27AE261204360202377580FB33
:1000EE00E530B40314C3E52994C4E52894095025DA
:1000FE0074052529F529E48018E530B40417D3E5F5
:10010E00299458E5289402400C74FB2529F529748E
:10011E00FF3528F528E538600E850B3485193585B1
:10012E0012368520378007AF29AE28120436020218
:10013E00377580F7E530B40314C3E52B9459E52ADF
:10014E00940650257405252BF52BE48018E530B464
:10015E000417D3E52B94F4E52A9401400C74FB2587
:10016E002BF52B74FF352AF52AE538600E850C34F5
:10017E00851A358513368521378007AF2BAE2A12A7
:10018E0004360202377580EFE530B40314C3E52D53
:10019E0094C4E52C940950257405252DF52DE48085
:1001AE0018E530B40417D3E52D94F4E52C940140F2
:1001BE000C74FB252DF52D74FF352CF52CE53860D0
:1001CE000E850D34851B358514368522378007AF95
:1001DE002DAE2C12043680517580DFE530B4031439
:1001EE00C3E52F94C4E52E940950257405252FF5EB
:1001FE002FE48018E530B40417D3E52F9465E52E6F
:10020E009404400C74FB252FF52F74FF352EF52E1C
:10021E00E538600E850E34851C35851536852337F9
:10022E008007AF2FAE2E120436E4F538E4F53022F7
:030000000203AA4E
:0C03AA00787FE4F6D8FD75813A0203F17B
:10053000C2D5E830E70FB2D5E4C39BFBE49AFAE4F6
:1005400099F9E498F8EC30E717B2D5120566120273
:100550007AE4C39BFBE49AFAE499F9E498F88003FF
:1005600012027A30D50DE4C39FFFE49EFEE49DFDA8
:04057000E49CFC22E9
:1003B6000204B7E493A3F8E493A34003F68001F2A2
:1003C60008DFF48029E493A3F85407240CC8C33348
:1003D600C4540F4420C8834004F456800146F6DF17
:1003E600E4800B01020408102040809005B5E47EED
:1003F600019360BCA3FF543F30E509541FFEE4930C
:10040600A360010ECF54C025E060A840B8E493A3D2
:10041600FAE493A3F8E493A3C8C582C8CAC583CAFD
:10042600F0A3C8C582C8CAC583CADFE9DEE780BEB5
:0105D3000027
:10023E0075F008758200EF2FFFEE33FECD33CDCC77
:10024E0033CCC58233C5829BED9AEC99E5829840FA
:10025E000CF582EE9BFEED9AFDEC99FC0FD5F0D6D7
:10026E00E4CEFBE4CDFAE4CCF9A88222B800C1B901
:10027E000059BA002DEC8BF084CFCECDFCE5F0CB3F
:10028E00F97818EF2FFFEE33FEED33FDEC33FCEB78
:10029E0033FB10D703994004EB99FB0FD8E5E4F933
:1002AE00FA227818EF2FFFEE33FEED33FDEC33FC20
:1002BE00C933C910D7059BE99A4007EC9BFCE99A14
:1002CE00F90FD8E0E4C9FAE4CCFB2275F010EF2F59
:1002DE00FFEE33FEED33FDCC33CCC833C810D70759
:1002EE009BEC9AE899400AED9BFDEC9AFCE899F894
:0E02FE000FD5F0DAE4CDFBE4CCFAE4C8F92227
:00000001FF
